:020000040000FA
:0600000096EF1CF0120057
:020006001200E6
:0600080079EF1AF012006E
:01000E0000F1
:01000F0000F0
:03001000000000ED
:060018003BEF1AF012009C
:02001E000800D8
:10002000633A00004A01000028000000483A00003E
:10003000610F00001B0000000F000000C501000060
:1000400004000000E7390000000F0000610000001C
:100050009D390000000100004A0000000E00000071
:10006000C90100000100000084390000AC0100005B
:100070001900000064390000720100002000000037
:10008000D8EC07F055D8E80EE66E030EE66E11D8F0
:10009000E552E5520101AE690101AF6901017D51EF
:1000A000FDE07D6B10EC16F0C4DA34D938EC0BF0BF
:1000B000F5D7FEEC07F0DE6ADD6ADECF10F0DDCFAB
:1000C00011F08FEC07F011501318E8AE02D0133482
:1000D00004D01250105C135011581DE2020EDB6A5E
:1000E000030EDB6A020EDBCF10F0030EDBCF11F044
:1000F000D890115004E6EE0E105C000E115806E286
:10010000020EDB2A030EEEE3DB2AECD7DF2A010E18
:10011000D4E3DB2AD2D7040EE15C02E2E16AE552C5
:10012000E16E81EF07F0956A836A946A826A120031
:10013000FADF49EC09F004EC16F033EC1AF0D0ECDD
:1001400009F0B1EC0AF0ABEC07F0570EE66E120EB8
:10015000E66E01EC19F0E552E552660EE66EB70E5A
:10016000E66E46EC19F0E552E552020EE66EE66ADE
:100170009FEC19F0E552E552320EE66EE66AC4ECE9
:1001800019F0E552E55243EF14F074EC07F00CE17E
:100190008FEC07F0133402E2E7EC07F005E36EECB6
:1001A00007F0EF508310836E81EF07F074EC07F0D7
:1001B0000CE18FEC07F0133402E2E7EC07F005E303
:1001C0006EEC07F0EF1C8314836E81EF07F074EC84
:1001D00007F00CE18FEC07F0133402E2E7EC07F0D4
:1001E00005E36EEC07F0EF509410946E81EF07F08A
:1001F00074EC07F00CE18FEC07F0133402E2E7EC4B
:1002000007F005E36EEC07F0EF1C9414946E81EF99
:1002100007F071EC08F089EC07F0EF0408E102EC5C
:1002200008F096EC08F089EC07F0EF6A08D002ECD1
:1002300008F09BEC08F089EC07F0010EEF6E81EFFF
:1002400007F0D8EC07F0DECF10F0DDCF11F0D8903A
:10025000115004E60E0E105C000E115815E2DECFB0
:10026000E6FFDDCFE6FF9BEC08F0ABEC07F0DECF5E
:10027000E6FFDDCFE6FF96EC08F0ABEC07F0DF2AF7
:10028000010EE1E3DB2ADFD7020EE15C02E2E16A64
:10029000E552E16E81EF07F0000E63EF07F0000E0C
:1002A00067EF07F0020E63EF07F0020E67EF07F04B
:1002B000040E63EF07F0040E67EF07F0060E63EF1E
:1002C00007F0060E67EF07F0010E63EF07F0010E6F
:1002D00067EF07F0030E63EF07F0030E67EF07F019
:1002E000050E63EF07F0050E67EF07F0070E63EFEB
:1002F00007F0070E67EF07F071EC08F0FD0EDBCF9B
:1003000008F0FE0EDBCF09F0010E081801E10950DC
:1003100081EF07F00101AE51030A01E19BD0010A10
:1003200001E195D0030A01E190D0010A01E189D0F1
:10033000080A24E0010A1EE0030A09E0F50A01E0C8
:100340008DD00101476B466B01010A0E11D0D4EC30
:1003500007F086D8A7EC07F003E00101090EAE6FA5
:10036000B9EC07F001E17BD0B1EC0AF00101010E1C
:10037000AE6F1200D4EC07F04DEF06F0D4EC07F0AE
:1003800015EC08F042510BE1B1EC0AF0270EE66ED5
:100390001D0E2BEC08F0190EE66E1D0E28D042053E
:1003A0000BE1B1EC0AF00A0EE66E1D0E2BEC08F024
:1003B000F90EE66E1C0E1BD0020E425D0BE1B1EC95
:1003C0000AF0EB0EE66E1C0E2BEC08F0DF0EE66E6C
:1003D0001C0E0DD0030E425D0CE1B1EC0AF0D30E01
:1003E000E66E1C0E2BEC08F0C50EE66E1C0E27EC1C
:1003F00008F0A7EC07F004E001014229C6EC07F081
:10040000C2EC07F008E00101425102E145C142F1AE
:100410004205C6EC07F0B9EC07F006E0B1EC0AF0D3
:1004200042C1AEF10101426BBC0E0101431908E16A
:10043000020E441914E11FEC08F00101436B446BF8
:100440001200D4EC07F0AAEF03F0F0DA01D0C2DA20
:100450007EEF02F0D4EC07F019EF03F0AE69120062
:10046000B40EE66E1C0E2BEC08F001013651030AA7
:1004700012E0010A0CE0030A06E0010A11E1A30EF2
:10048000E66E1C0E0BD0920EE66E1C0E07D0810E8F
:10049000E66E1C0E03D0700EE66E1C0E27EC08F004
:1004A00046C110F085EC07F046C1E6FF5AEC07F0B4
:1004B0000E0E61EF07F001013651030A18E0010A40
:1004C00010E0030A08E0010A01E01200E5DEF3DEB5
:1004D00009EC08F002D00FEC08F008DFF8DE73EF4B
:1004E00001F0F2DE00DF05DFDDDEF7DE03D0EFDE58
:1004F000F7DEFFDEE3DED3DE5BEF01F0010147292B
:10050000106E140E7BEC07F005C047F10101055099
:1005100001E146073651030A1DE0010A13E0030A10
:100520000AE0010A1FE1496B46511DE1010E366FD9
:100530003BC146F11200465116E1020E366F3CC136
:1005400046F10DD0496B46510EE1030E366F3DC1A9
:1005500046F11200465107E1366B3AC146F1010EF1
:10056000496F1200366B120001013651030A0EE08A
:10057000010A08E0030A0AE0010A01E012004651FC
:100580003B2502D046513D25486F120046C148F137
:1005900012000101010E521901E153510CE0140E39
:1005A000525D000E535908E352C110F0ECEC07F015
:1005B00003E1115001E1010C000C0101010E54197D
:1005C00001E155510CE0140E545D000E555908E33D
:1005D00054C110F0ECEC07F003E1115001E1010C03
:1005E000000C0101010E561901E157510CE0140EE7
:1005F000565D000E575908E356C110F0ECEC07F0B9
:1006000003E1115001E1010C000C0101010E5A1926
:1006100001E15B510CE0140E5A5D000E5B5908E3DA
:100620005AC110F0ECEC07F003E1115001E1010CAC
:10063000000C0101B30575E1B1EC0AF06C0EE66E39
:100640001C0E2BEC08F00A0E00018103F3508225EA
:100650006CEC08F0040E6BEC07F0680EE66E1C0EF6
:10066000E66E080EE66EE66A53EC07F00A0E00012D
:100670008303F35084256CEC08F00B0E6BEC07F051
:10068000640EE66E1C0E27EC08F00A0E00018503CE
:10069000F35086256CEC08F0040E61EC07F0600E58
:1006A000E66E1C0EE66E080EE66EDDEC08F00A0E35
:1006B00000018703F35088256CEC08F00B0E61EC09
:1006C00007F01AEC08F02BE10A0E00018103F35049
:1006D000822501013A6F0A0E00018303F35084253D
:1006E00001013B6F0A0E00018503F35086250101CD
:1006F0003C6F0A0E00018703F350882501013D6F0E
:10070000470EE66E1C0EE66E9FEC14F0E552E552C5
:10071000DEEC07F00101496B0101B36B02D0C3ECC1
:1007200008F00101B15109E10A0E0101AE5D05E1D8
:10073000DEEC07F00101010EB16FA7EC07F009E054
:10074000030E0101AE5D05E10A0EAE6F0101010E5F
:10075000B26F1200A4EC08F015EC08F03851060A4C
:1007600001E11CD1030A01E10FD1050A01E1B6D074
:10077000040A01E18AD0070A5EE0010A30E0030AB8
:1007800001E025D1F1EC07F0080EE66EE66A85EC93
:1007900008F005E00101020E386F436B446BC2ECB8
:1007A00007F009E0630E01013E5D02E13E6B01D0FE
:1007B0003E2B436B446BDDDB09E001013E5103E15D
:1007C000630E3E6F01D03E07436B446B23EC08F091
:1007D00005E1010E441901E0FCD0A8DB1200F1ECA8
:1007E00007F0080EF6EC08F085EC08F005E00101D2
:1007F000030E386F436B446BC5DB09E0630E0101E8
:10080000405D02E1406B01D0402B436B446BB1DB98
:1008100009E00101405103E1630E406F01D0400740
:10082000436B446B23EC08F005E1010E441901E031
:10083000D0D07CDB1200D5DB0E0EE66EE66A85ECCE
:1008400008F005E00101040E386F436B446B9ADB3E
:1008500009E0630E01013F5D02E13F6B01D03F2BD8
:10086000436B446B86DB09E001013F5103E1630EFA
:100870003F6F01D03F07436B446BE5DB05E1010EA1
:10088000441901E0A6D052DB1200ABDB0E0EF6ECF1
:1008900008F085EC08F004E00101386B436B446B11
:1008A00071DB09E0630E0101415D02E1416B01D0A2
:1008B000412B436B446B5DDB09E00101415103E1D6
:1008C000630E416F01D04107436B446BBCDB05E114
:1008D000010E441901E07DD029DB1200B1EC0AF0D1
:1008E000EE0EE66E1B0EB7DBDF0EE66E1B0EAFDB09
:1008F0000101425104E1D00EE66E1B0E0CD0420500
:1009000004E1C10EE66E1B0E06D0020E425D04E14C
:10091000B10EE66E1B0E9BDB1ADB03E001014229E0
:10092000F0DB30DB07E00101425102E1030E426FD0
:100930004205E7DB1EDB21E00101436B446BB1ECB8
:100940000AF0010142510AE13EC13AF13FC13BF1D7
:1009500040C13CF141C13DF1050E0ED0420505E11B
:10096000ECDA010E386F6BDB08D0020E425D05E158
:10097000E4DAEADB0101010E386F65DB04E1010E08
:10098000441927E1D3DA120055DB06E1010E386F76
:1009900056DB0101496B1200C3EF08F0D1EC08F0FF
:1009A00004E1D5DA02E1EEDA05E039C138F1F5DA31
:1009B000436B446B900E0101431908E1010E441989
:1009C00008E1BBDA050E386F436B446B1200010E71
:1009D000386F120076DC63DC7ADC8BDC66DC7DDC75
:1009E000B1EC0AF0890EE66E1B0E31DB7B0EE66E73
:1009F0001B0E31DB01014229106E640E7CDA05C04A
:100A000042F101010550320807E27A0EE66E1B0E34
:100A10001EDB51DC68DC02D04BDC62DC98DA05E0DE
:100A20000101426B01010A0EAE6F1200FEDA200EC8
:100A300043190EE1030E44190BE1060E0101AF5DEF
:100A400007E0AFC137F1060EAF6F0101436B446B96
:100A50000101AF51060A01E107D1030A01E1E7D024
:100A6000040A01E194D0010A43E0FF0A01E0120008
:100A70000101B06BB1EC0AF06A0EE66E1B0EEBDA08
:100A80005A0EE66E1B0EE3DA0101425104E14A0EF2
:100A9000E66E1B0E05D0420504E13A0EE66E1B0E13
:100AA000D6DA55DA01E04CDB6DDA07E0010142519C
:100AB00002E1020E426F420560DA5BDA01E1ECD03E
:100AC000010142510AE1365102E0360503E101011C
:100AD000AF6B08D00101010E04D0420503E1010112
:100AE000050EAF6F0101B06B0101B16B01019CD02C
:100AF00071DB03E10101010EB16F0101B1510DE1A3
:100B000060DB8DDA73EC01F067EC01F076EC01F05C
:100B10006AEC01F055EC01F022D00101425104E1F0
:100B2000040EE66E1B0E05D0420504E1F30EE66EE0
:100B30001A0E8DDA5BEC01F05EEC01F04FEC01F087
:100B400064EC01F079EC01F073EC01F06DEC01F074
:100B500052EC01F00101B15102E1010EB16FF7D980
:100B600001E0EEDA0FDA07E00101425102E1020E84
:100B7000426F420502DAFDD901E18ED001014251F6
:100B800003E10101010E4ED042054DE149D022DBC7
:100B900003E10101010EB16F0101B15112E111DB5D
:100BA00070EC01F067EC01F079EC01F05BEC01F026
:100BB0004FEC01F05EEC01F06DEC01F052EC01F055
:100BC00019D00101425104E1040EE66E1B0E05D05E
:100BD000420504E1F30EE66E1A0E39DA73EC01F009
:100BE00076EC01F04CEC01F014DA0101B15102E1B4
:100BF000010EB16FACD901E0A3DAC4D907E001015D
:100C0000425102E1020E426F4205B7D9B2D944E027
:100C10000101425103E10101AF6B05D0420503E13F
:100C20000101050EAF6FB9D9436B446B120002DAB4
:100C300006E105DA0101AF690101496B1200B1EC6F
:100C40000AF0E30EE66E1A0E06DADA0EE66E1A0EF9
:100C5000FED93BDA090E35D9D80EE66E1A0EE66ECD
:100C60000B0EE66EDDEF08F09CDA04E170D902E1CC
:100C700089D905E037C1AFF190D9436B446B900E31
:100C80000101431909E1010E441906E10101050EB4
:100C9000AF6F0101436B446B120001013451040A30
:100CA0005FE0070A51E0010A43E0030A15E0FE0A8B
:100CB00001E01200C70EE66E1A0ECDD9B60EE66E32
:100CC0001A0EC5D9D9D843D958E00101356B0101B5
:100CD000B06B0101010E36D0A50EE66E1A0EBBD91F
:100CE0000101B02B97D8000913E0A30EE66E1A0E8F
:100CF000E66E35C1E6FF61DA01013551EA6AF90FA6
:100D0000E96E000EEA22FDC0EFFF352B0101B06B4A
:100D1000040E0101355D02E3020E346F640E010121
:100D2000B05D02E30101346998D8000926E022D0C1
:100D30000101B06B23D8000903E00101030E02D0CA
:100D40000101040E346F12000101B02B920EE66E09
:100D50001A0E81D98AD8640E0101B05D0EE30AD063
:100D60000101B02B810EE66E1A0E75D9280E010115
:100D7000B05D03E301013469120012003FD936D996
:100D8000DF6A050EDF5C3DE231D9010EDB6A040E3D
:100D9000F36E010EDBCFF4FFF350F45C24E2010E9E
:100DA000DB50EA6AF90FE96E000EEA22EFCF10F08D
:100DB000DF50040DF3CF11F0F4CF12F0200E112606
:100DC000010E1222010EDB501124E96E000E1220DA
:100DD000EA6EEF50105C04E0020EDB6A030EDB6A81
:100DE000010EDB2AD4D7D950020FE96EDACFEAFF21
:100DF000010EEE1804E1ED5002E1DF2802D0DF2AF7
:100E0000C0D7106E040EE15C02E2E16AE552E16EC9
:100E1000105077D066D9E652DF6ADF500F081AE328
:100E2000EA6ADF34FE0BEA36E96E4A0EE926010E65
:100E3000EA22010EEE180CE1ED500AE1DF50EA6AF9
:100E4000100FE96E010EEA22EFCFFDF0010E03D084
:100E5000DF2AE3D7000EE55254D00101010E6219DA
:100E600003E1635101E1010C000C0101080EAE6FBA
:100E70000101426B346912000101B02BB051106EB8
:100E8000116AD890115004E6C80E105C000E11587B
:100E900009E3700EE66E1A0EDED8D1D8010134696E
:100EA0000101B06B1200B7EC0BF0E552E552E552D0
:100EB000E552120011C0E6FF12C0E6FF13C0E6FFC4
:100EC000120094D925D1E66EE66A9BEF08F0E66E33
:100ED000E66A96EF08F0E66EE66A1AD120D9000EAF
:100EE000E926010EEA221200FCD8FE0EDBCF11F03B
:100EF000800E11141200116E0E6E10C009F0A4EFD6
:100F00001CF0E552E7CFD9FF1200116A126A136A8A
:100F1000120005D9080EE926010EEA221200FD0E84
:100F2000DBCF12F0FE0EDBCF13F0120038C139F127
:100F3000060E386F436B446B12003AC13EF13BC161
:100F40003FF13CC140F13DC141F1426B1200C9EC9F
:100F500002F000091200F40E49D959EC00F0E552F4
:100F6000E5521200040EE66E1C0EE66E090EE66EE9
:100F70001200F1EC02F000091200010B426F436B0A
:100F8000446B1200DDEC02F000091200106E45C146
:100F90000EF0096EA4EC1CF023D10101B06B01012D
:100FA000B16B0101426B12005BEC02F07EEF02F0CC
:100FB00098D8020EE126DE6ADD6A12002A0EE66E7D
:100FC0001C0EE66E9FEC14F0E552E5521200125032
:100FD0000708000E13541200116A010E10161018A3
:100FE0001200FC0EE66E1B0EE66E1200010EF36E92
:100FF000020EF3CFDBFF030EDB6A120072D8040E81
:10100000E1261200FD0EDBCFE6FFFE0EDBCFE6FF92
:10101000120061EC01F06AEC01F055EF01F058ECC0
:1010200001F04FEC01F061EF01F00101432B000EE4
:1010300044231200B4EC02F0010149051200010141
:101040000A0EAE6F1200F40E010143191200E66E93
:10105000E66ADDEF08F0E66EE66AE66A53EF07F04F
:10106000640E0101D880B055146E140E156E0E6E0C
:1010700014C009F0A4EC1CF009C010F046DF09C050
:10108000E6FF18DF0E0EB2D869EC0BF0166E060EF6
:10109000E15E1650150EE66E1B0EE66E0F0EE66E46
:1010A000DDEF08F040C110F030DF40C1E6FF02DFA5
:1010B000050E07DF57DF81D841C110F026DF41C19F
:1010C000E6FFF8DE0B0E61EF07F048C110F01DDF00
:1010D00048C1E6FF5AEF07F0106E17DFE66E5AEFD1
:1010E00007F0D9CFE6FFE1CFD9FF12000101B02907
:1010F000106E640E00DF05C0B0F1630E0101055CE7
:101100001200106E030EF7DE6BD0CDDEA7EF07F0F6
:1011100069EC0BF0146E060EE15E14501200FD0E29
:10112000DBCFE9FFFE0EDBCFEAFF1200D6EC00F0CA
:10113000E552E5521200C5EC00F0E552E55212000E
:1011400001014229BDEF07F0B1EC0AF0070EE66E8F
:101150001C0E81DF3EC110F0D8DE3EC1E6FFAADEE4
:10116000050EB9DEFFDEE66A9EDE3FC110F0CDDE81
:101170003FC1E6FF9FDE0B0EAEDEFE0EE66E1B0EDF
:1011800066DF52EF08F0B1EC0AF0190EE66E1C0EA5
:1011900062DF0D0EE66E1C0E5ADF97DF0A0E61EF5E
:1011A00007F0B1EC0AF0A00EE66E1B0E54DF9A0EAB
:1011B000E66E1B0E4CDFB9EF07F0010EE66E53EF43
:1011C00007F00101436B446B170EE66E1B0E3FDF09
:1011D00030EF08F0290EE66E1B0E3DDF76EF08F0CB
:1011E00005C042F10101436B446B1200E66E010E33
:0411F000E66E120095
:0C11F4001FEC0DF08CDB11AE02D0126875
:10120000136831DB13E29ADB5ADB04E6050E105C4F
:10121000000E115806E2020EDB2A030EF5E3DB2A6C
:10122000F3D7DF2A010EE8E3DB2AE6D7040EE15C00
:1012300002E2E16AE552E16ECCD21FEC0DF069DB0F
:1012400011AE02D0126813680EDB13E277DB37DBD6
:1012500004E6EE0E105C000E115806E2020EDB2AC8
:10126000030EF5E3DB2AF3D7DF2A010EE8E3DB2ADE
:10127000E6D7040EE15C02E2E16AE552E16EA9D232
:10128000E4DBF00B7BDBFE0EDB38F00B811288DA3F
:10129000A0D2D2DB936A190E5FDB0F0E8116F80E17
:1012A00081160F0E8116300E69DB300E67DB300EB3
:1012B00065DB818A75DA280EE66EE2DFE5520C0EF8
:1012C000E66EDEDFE552E55284D2ACDB010EDB6A6E
:1012D000819459DBE76E010EE7CFDBFF819653DB8C
:1012E000DF6E010EDB50DF128196010E60DADF50F7
:1012F000106E020EE15C02E2E16AE552E16E10500E
:1013000068D29ADBDF6AE1DFDF6EDFBEFCD7DF5039
:10131000E5525FD29ADB81128186050E48DA81960A
:10132000050E45DA56D250DA8194050E40DAA7DA76
:1013300050D24ADA8184050E3ADAA1DA819449D290
:101340004AD349D341DAFD0EDBCFF6FFFE0EDBCFE9
:10135000F7FF0800F5500DE0FD0EDBCFF6FFDB2AAE
:10136000FE0EDBCFF7FF01E3DB2A0800F5502ADB96
:10137000EAD72FD261DBFD0EDB500F0B106EFE0E95
:10138000DB50010B400DF3501024DF6E7F0EDF1495
:10139000800FDF6EDFCFE6FFC6DFE552E55219D2E0
:1013A000010EE66EC0DFE552E66AE66A2BEF0DF04D
:1013B0000BDA050EE126010EF36EDB6EBFDA040ECA
:1013C000DB6ADF6ADFCF10F0116A10BE1168A8DA9D
:1013D00011501318E8AE02D0133404D01250105C30
:1013E000135011581FE2FD0EDBCF10F0FE0EDBCFC5
:1013F00011F0126A136A11AE02D012681368D95044
:10140000010FE96EDACFEAFF10C00BF011C00CF04B
:1014100012C00DF013C00EF0EADADBEC1BF0F0DACC
:10142000DF2AD0D7010EDBCF10F0020EDBCF11F098
:10143000030EDBCF12F0040EDBCF13F010C006F06A
:1014400011C007F012C008F013C009F0050EE15CEE
:1014500002E2E16AE552E16EBCD1E4DAFB0EDBCFD9
:1014600010F0FC0EDBCF11F0FD0EDBCF12F0FE0E04
:10147000DBCF13F0105011101210131003E1300ED7
:10148000A1DA36D0D950FB0F23DA01E627DA05E2DC
:101490002D0E98DAD950FB0FD9D9DE52070EDD6E2A
:1014A00046DAE8AE02D0103403D0E750D8801054AA
:1014B0001FE226DA14BE156880D945DA6DDA17DA2C
:1014C0000BE0010EDF6EDB04186E196A18BE196896
:1014D00092D962DAAED903D0DF5002E0300E72DA70
:1014E0000FDA14BE156869D9D950FB0F7BD9D8D74C
:1014F000020EE15C02E2E16AE552E16E6AD164D972
:10150000D6D9D950F90F62DAEECFE6FFEECFE6FF7B
:10151000EECFE6FFEFCFE6FFA0DFE552E552E55262
:10152000E55257D151D9C3D9FB0EDBCFE6FFFC0EF4
:10153000DBCFE6FF07DFE552E5524BD145D97CCF43
:1015400010F07DCF11F0040ED89010361136E80659
:10155000FBE1A1D9FE0EDBCFEFFF7E2B000E7F2338
:1015600038D16ADADF6ADFCF10F0100EE76E10189C
:10157000E8AE02D0E73402D0E750105C18E2DFCFCB
:10158000E9FFEA6AE9BEEA68410EE9260F0EEA229F
:10159000200EEF6EDFCFE9FFEA6AE9BEEA68510E7E
:1015A000E9260F0EEA22200EEF6EDF2ADCD7E55285
:1015B00010D142DA0F014051030A29E0010A1CE070
:1015C000030A0CE0010A32E14ADA080EDF5C03E2AA
:1015D000DF50C8D9FAD70F01010E17D0080EE66EFA
:1015E000E66A18D9080EDF5C04E2080EDF24BAD9D7
:1015F000F9D70F01020E09D01ADA080EDF5C03E2F8
:10160000DF50B6D9FAD70F01030E406F10D0080E85
:10161000E66E010EE66EFED8080EDF5C04E2080EF0
:10162000DF24A6D9F9D70F01406B01D0406BE552FA
:10163000D0D002DA0F014051010A0DE0010A15E194
:101640000EDA100EDF5C03E2DF508CD9FAD70F01FF
:10165000010E406F0BD0EBD9100EDF5C03E2DF50C0
:1016600087D9FAD70F01406B01D0406BE552B1D05A
:10167000E3D9F5D9100EDF5C03E2DF5073D9FAD756
:10168000D6D9100EDF5C03E2DF5072D9FAD7E552EB
:10169000A0D09AD8C2D8FC0EDB500A0802E1610E35
:1016A00005D0FC0EDB500D0805E1640EF36EFC0E58
:1016B000F3CFDBFF7CCF10F07DCF11F0040ED8907C
:1016C00010361136E806FBE1E6D8FC0EDBCFEFFF63
:1016D00080D0A8D9A2D8F90EDBCF10F0FA0EDBCF5C
:1016E00011F01ED9105011101210131003E1300E1A
:1016F0000CD936D0D950F90FEBD801E6EFD805E276
:101700002D0E03D9D950F90FA1D8DE52070EDD6E88
:101710000ED9E8AE02D0103403D0E750D880105470
:101720001FE2EED814BE156848D80DD940D9DFD8CD
:101730000BE0010EDF6EDB04186E196A18BE196823
:101740005AD835D976D803D0DF5002E0300EDDD834
:10175000D7D814BE156831D8D950F90F43D8D8D787
:10176000020EE15C02E2E16AE552E16E32D02CD871
:1017700054D8FB0EDBCFF6FFFC0EDBCFF7FF0800E3
:10178000F5500DE0FB0EDBCFF6FFDB2AFC0EDBCFC6
:10179000F7FF01E3DB2A0800F550B7D8EAD719D0E4
:1017A0008186010ED9D88196010EACEF0CF0E66E61
:1017B000E66AE66AE66A1EDD56D114C0E6FF15C089
:1017C000E6FF10D909EF0DF0D9CFE6FFE1CFD9FF41
:1017D0001200E552E7CFD9FF1200EA22EF50F2D80B
:1017E000DF2A1200F3D8AFD802D913EC1CF008D9C5
:1017F000010EDB06120018C0E6FF19C0E6FFF2D8A2
:1018000006C014F007C015F008C016F009C017F0A4
:10181000A3EF0CF020D9DF6A1200FE0EDB50010BA3
:101820000F017C6F7D6BFD0EDB500F0B7E6F7F6BAE
:101830001200DBCF09F013EC1CF0EBD8300E1026B1
:10184000000E11221222132210501200BFD8000ED7
:10185000EE6CEF1EEE22EF1EEE22EF1EEF22ED5297
:10186000ED52ED521200D950FB0FB0D8EE50105C83
:10187000EE501158EE501258EE5013581200FE0E52
:10188000DBCFE6FF47DDE552FE0EDB38F00BE66E00
:1018900041DDE5521200410E10260F0E11221050AC
:1018A0000F017E25E96E11507F21EA6E1200FD0EB8
:1018B000DBCFE6FFFE0EDBCFE6FF2BEF0DF0020ED7
:1018C000DBCF10F0030EDBCF11F0D89011501200D7
:1018D0007DD8D890030EEB50000A1200000EEE5C8B
:1018E000000EEE58000EEE58000EEE581200DBCF40
:1018F00009F013EC1CF00650071008100910120034
:10190000010EDB04146E156A1200E66E17DEE55256
:101910001200DECF10F0DDCF11F0126A136A120050
:10192000FB0EDBCF12F0FC0EDBCF13F01200010E2A
:10193000DBCF10F0000EE76E10181200020EDB6A0B
:10194000030EDB6A120006C00BF007C00CF008C0E3
:101950000DF009C00EF01200E66EE66AE66AE66A6D
:101960006CDC81D0EA6A410FE96E0F0EEDEF0BF0EF
:10197000EA6A510FE96E0F0EEDEF0BF0811210DFE6
:101980000F0E811612000F0E12DF0F0E81128186CC
:101990000EDF0F0E81141200FB0EDBCF06F0FC0EE3
:1019A000DBCF07F0FD0EDBCF08F0FE0E1200F90EC4
:1019B000DBCF06F0FA0EDBCF07F0FB0EDBCF08F033
:1019C000FC0E1200E66EBDDCE5521200E96EFF0E61
:1019D000DA20EA6E1200F8DEFE0EDBCFE6FFA9DCAD
:1019E000E552F7D60A0EE66EE66AE2DC3CD0EECFB0
:1019F00006F0EECF07F0EECF08F0EFCF09F01200BF
:101A000005C0EDFF04C0EDFF03C0EDFF02C0EFFF16
:101A1000120006C010F007C011F008C012F009C093
:101A200013F01200D1DE020EE126DF6A1200E66A30
:101A3000010EE66E0AEF0CF0C7DEE6521200C4DEBD
:101A4000040EE126DE6ADD6A1200BEDE0F0E81168C
:101A5000FE0EDB5012008EDCE552E5521200E66A03
:101A6000E66A0AEF0CF0E552E552E552E552120043
:101A700054524146464943204C45442020202020D2
:101A80000050415353574F52442057524F4E472016
:101A900020004F50454E494E4720444F4F52202082
:101AA0002020002A00454E544552205041535357A0
:101AB0004F524420200020202020202020202020C1
:101AC000202020202020005052455353203420460F
:101AD0004F5220504153530053004D4F444520492D
:101AE0004E3A004241434B20544F20545241464607
:101AF000494300204348414E47452020204558494E
:101B0000543C2000204348414E47453C2020455846
:101B1000495420200073004348414E4745204C451E
:101B20004420494E3A20202000204D414E55414C42
:101B3000204D4F44453A4F4E2000204348414E47E8
:101B400045202020455849543C00204348414E47F9
:101B5000453C2020455849542000204348414E47E9
:101B600045202020455849542000204D414E5541E4
:101B70004C204D4F44453A4F4E0000534C4F572098
:101B80004D4F44453A204F4E00474F204F55543A51
:101B900020505245535320342000594553203C00D7
:101BA000594F55205354494C4C2048455245203FED
:101BB0000059455320204E4F202052455345543C58
:101BC0000059455320204E4F3C2052455345540068
:101BD0005945533C204E4F202052455345540059FF
:101BE000455320204E4F20205245534554004B452D
:101BF00045502053455454494E473F003C00503215
:101C000020473A00593A00503120473A002020201E
:101C1000202020494E3A2020002055504441544570
:101C20002053455454494E4720000D0A4368616EC5
:101C300067656420746F2074726166666963206DE5
:101C40006F6465210D0A000D0A557064617465208A
:101C50007375636365737366756C6C79210D0A0027
:101C600059323A0047323A0059313A0047313A0086
:101C70005048415345325F59454C4C4F573A20200C
:101C8000005048415345325F475245454E3A202067
:101C900020005048415345315F59454C4C4F573A0D
:101CA0002020005048415345315F475245454E3A48
:101CB0002020200054524146464943204C49474881
:101CC000543A4F4E00343A55415254204D4F4445FA
:101CD000203C00333A534C4F57204D4F444500347D
:101CE0003A55415254204D4F444500333A534C4FDE
:101CF00057204D4F4445203C00323A4D414E55410E
:101D00004C204D4F444520203C00313A534554541B
:101D1000494E472054494D4500323A4D414E5541B8
:101D20004C204D4F444500313A53455454494E4799
:101D30002054494D45203C002020202020202020F8
:101D40002020202020202020004368616E676564E9
:101D500020746F2074726166666963206D6F6465BC
:101D6000210D0A000D0A57616974696E6720666F5C
:101D700072206368616E67696E6720746F206D6F93
:101D800064652E2E2E0D0A00507265737320642038
:101D9000746F20636F6D65206261636B20746F20C8
:101DA00074726166666963206D6F6465210D0A0057
:101DB0005072657373206120746F206368616E6771
:101DC00065206C6564210D0A004368616E676520BB
:101DD0006C656420636F6D706C657465210D0A001D
:101DE000536B69707065642064617461210D0A0031
:101DF00057616974696E6720666F72206368616EEF
:101E000067696E6720746F206D6F64652E2E2E0DCE
:101E10000A004E6F202D3E20507265737320620DB4
:101E20000A00596573202D3E20507265737320613E
:101E30000D0A0055706461746520616C6C207365D7
:101E40007474696E673A0D0A0059343D0055706428
:101E50006174652059343A00526575706461746527
:101E6000205933206F722070726573732061207463
:101E70006F20636F756E74696E75650D0A00285961
:101E80003429730D0A00732D2D5068617365322D4E
:101E900059656C6C6F773A0059333D005570646139
:101EA00074652059333A0052657570646174652019
:101EB0005932206F72207072657373206120746FC5
:101EC00020636F756E74696E75650D0A00732D2D34
:101ED0005068617365322D59656C6C6F773A28597B
:101EE000332928593429730D0A0059323D005570A1
:101EF000646174652059323A00526575706461748A
:101F000065205931206F72207072657373206120D3
:101F1000746F20636F756E74696E75650D0A0028A5
:101F2000593229732D2D5068617365322D59656CB6
:101F30006C6F773A2859332928593429730D0A00D0
:101F40005068617365322D477265656E3A0059318C
:101F50003D005570646174652059313A00526575D1
:101F60007064617465205834206F722070726573DC
:101F700073206120746F20636F756E74696E756570
:101F80000D0A005068617365322D477265656E3ABF
:101F900028593129285932292D2D5068617365320D
:101FA0002D59656C6C6F773A285933292859342993
:101FB0000D0A00730D0A0058343D005570646174B9
:101FC000652058343A005265757064617465205814
:101FD00033206F72207072657373206120746F20DC
:101FE000636F756E74696E75650D0A002858342923
:101FF000730D0A00732D2D5068617365312D59657D
:102000006C6C6F773A0058333D00557064617465AD
:102010002058333A005265757064617465205832F7
:10202000206F72207072657373206120746F20635B
:102030006F756E74696E75650D0A00732D2D50688D
:10204000617365312D59656C6C6F773A2858332967
:1020500028583429730D0A0058323D0055706461C8
:1020600074652058323A00203D3E2057726F6E67EB
:102070002076616C7565200D0A005265757064618B
:102080007465205831206F722070726573732061FF
:1020900020746F20636F756E74696E75650D0A002C
:1020A00028583229732D2D5068617365312D59657B
:1020B0006C6C6F773A2858332928583429730D0AE5
:1020C000005068617365312D477265656E3A00583E
:1020D000313D002D534C4F57204D4F44453A204F32
:1020E0004E2D0D0A007072657373206420746F208A
:1020F000636F6D65206261636B20746F2074726121
:1021000066666963206D6F6465210D0A00707265F3
:102110007373206120746F206368616E6765206C43
:102120006564210D0A002D4D414E55414C204D4F07
:1021300044453A204F4E2D0D0A0055706461746578
:102140002058313A005068617365322D47726565D9
:102150006E3A2859312928593229732D2D5068613A
:102160007365322D59656C6C6F773A28593329287D
:10217000593429730D0A005068617365312D477217
:1021800065656E3A2858312928583229732D2D500B
:1021900068617365312D59656C6C6F773A285833D7
:1021A0002928583429730D0A002D53455454494E9B
:1021B00047204D4F44453A204F4E2D0D0A00507296
:1021C0006573732063206368616E676520746F2098
:1021D000736C6F7720646F776E206D6F64650D0A86
:1021E0000050726573732062206368616E676520BA
:1021F000746F206D616E75616C206D6F64650D0A82
:102200000050726573732061206368616E6765209A
:10221000746F2073657474696E672074696D6520CE
:102220006D6F64650D0A002D2D2D2D2D2D2D2D2D5D
:102230002D2D2D2D2D2D2D2D0D0A000D0A00554172
:0C2240005254204D4F44453A204F4E00B0
:04224C00B1EC0AF0F7
:10225000AECFEDF0EDC0E6FF00DB0101B251100A98
:1022600001E11AD21F0A01E104D2010A01E1EED113
:10227000020A01E1D5D1070A01E197D1010A01E182
:1022800067D1030A01E137D1010A01E105D10F0A43
:1022900001E1D9D0010A01E1AAD0030A01E17AD013
:1022A000010A49E0050A01E003D23E0EE66E220E65
:1022B00071DA0101C35110E17ADA010EE66E220EE5
:1022C00028DAE10EE66E210E24DABE0EE66E210E4D
:1022D00020DA0101010EC36F55DA11E1C2DAA90E4D
:1022E000E66E210E16DA770EE66E210E7FDAC6DA7A
:1022F0003A0EE66E210E0DDA0101040ED7D1620E00
:10230000ED5D0CE1AEDA260EE66E210E02DA0D0E60
:10231000E66E210E7ADA010EAE6FAFD1630EED5D7F
:1023200001E0C7D19EDAD30EE66E200E6EDA020E01
:10233000AE6F100EBBD1CF0EE66E200EF0D904E0CA
:102340000FDA1CE308DA1AE30BDA13E304DA11E319
:102350007BDAEDC0E5F004DA816F67DAE5C0E6FF0D
:102360007CDAA00EE66E200E41DA7A0EE66E200EC2
:1023700037D137DA3A0EE66E210E66D10101C40577
:1023800001E097D1FFD901E094D163DA5C0EE66EEB
:10239000200E41D1580EE66E200EC1D904E0E0D9DE
:1023A0001AE3D9D918E3DCD911E3D5D90FE34CDA14
:1023B000EDC0E6F0D5D9826F38DAB9D93B0EE66EBA
:1023C000200E14DA150EE66E200E0AD10ADA5C0E23
:1023D000E66E200E39D10101C40501E06AD1D2D9DF
:1023E00001E067D136DA0A0EE66E200E14D1060E31
:1023F000E66E200E94D904E0B3D919E3ACD917E303
:10240000AFD910E3A8D90EE31FDAEDC0E7F0A8D9E1
:10241000836FC5D9EC0EE66E1F0EE8D9C60EE66EC8
:102420001F0EDED0DED90A0EE66E200E0DD10101A0
:10243000C40501E03ED1A6D901E03BD10ADABB0ECA
:10244000E66E1F0EE8D0B70EE66E1F0E68D904E0E8
:1024500087D916E380D914E383D90DE37CD90BE344
:10246000F3D9EDC0E8F07CD9846F99D902DA830EF4
:10247000E66E1F0EB1D0B5D9BB0EE66E1F0EE4D0CE
:102480000101C40501E015D17DD901E012D1E1D9E6
:10249000520EE66E1F0EBFD04E0EE66E1F0E3FD9D7
:1024A00004E05ED91CE357D91AE35AD913E353D990
:1024B00011E3CAD9EDC0E9F053D9856FD7D9E9C086
:1024C000E6FFCBD91F0EE66E1F0E23D9F90EE66E7E
:1024D0001E0E86D086D9520EE66E1F0EB5D00101B3
:1024E000C40501E0E6D04ED901E0E3D0B2D9EE0E4A
:1024F000E66E1E0E90D0EA0EE66E1E0E10D904E0B7
:102500002FD91AE328D918E32BD911E324D90FE3E3
:102510009BD9EDC0EAF024D9866FA8D92AD9CD0E6F
:10252000E66E1E0EF6D8A70EE66E1E0E59D059D9CD
:10253000EE0EE66E1E0E88D00101C40501E0B9D092
:1025400021D901E0B6D085D99C0EE66E1E0E63D06F
:10255000980EE66E1E0EE3D804E002D91AE3FBD80B
:1025600018E3FED811E3F7D80FE36ED9EDC0EBF016
:10257000F7D8876F7BD940D97E0EE66E1E0EC9D87C
:10258000580EE66E1E0E2CD02CD99C0EE66E1E0E3A
:102590005BD00101C40501E08CD0F4D801E089D002
:1025A00058D94D0EE66E1E0E36D0490EE66E1E0E42
:1025B000B6D804E0D5D81EE3CED81CE3D1D815E3B5
:1025C000CAD813E341D9EDC0ECF0CAD8886F4ED910
:1025D00013D9ECC0E6FFC8D89CD85D0EE66E1F0E7E
:1025E00098D80101010EC46F1200FBD84D0EE66EA3
:1025F0001E0E2AD00101C4055CE1C4D85AE129D9D4
:10260000330EE66E1E0E85D8220EE66E1E0E81D8A3
:10261000120EE66E1E0E7DD80101B22BC46B1200A5
:10262000B1D809E10101010EB36FB26F0DD9F00EFF
:10263000E66E1D0E09D0620EED5D3BE10101010E5B
:10264000B26FE00EE66E1D0E89EF13F09BD805E128
:10265000B7D8010EAF6F0F0E29D0640EED5D29E1E2
:102660000101B06BB16B640EE66E1D0E52D8010114
:1026700010D088D804E1A4D8AF6B0E0E17D0640E2A
:10268000ED5D17E1640EE66E1D0E43D80101B06BDF
:10269000B16B050EAF6F09D0640E0001ED5D04E172
:1026A000490EE66E1D0E35D80101010EB26F120003
:1026B000B26B120012000101B3052AE1380EE66E7A
:1026C0001D0E68D80001806B0101B7510001805DCB
:1026D00015E28051EA6A810FE96E000EEA22EFCF1F
:1026E00010F054D810C0E6FF28D8030E8003F35032
:1026F000E66EE66A29D80001802BE6D7B2C110F059
:1027000045D8B2C1E6FF19D80F0EE66EE66A1CD8AE
:102710001200E66E9FEC14F0E552E5521200E66EF0
:10272000E66A010EE66E78D80101C4511200E5C0D8
:10273000E6FF93D8E6C0E6FF76D011C0E6FF12C0F0
:10274000E6FF13C0E6FF120069EC0BF0146E060EF4
:10275000E15E14501200390E106EED51105C120043
:10276000300E0001ED5D120078D8B30EE66E1F0E3C
:102770001200E9C0E6FF71D8EAC0E6FF54D0E7C016
:10278000E6FF51D0610E0001ED5D1200116A126A80
:10279000136A1200E66EE66AE66A0CEF14F045D89A
:1027A000C6DFF40EE66E1F0EB4DFBFEF13F04CD899
:1027B0003EEF14F05ED8400EE66E1F0E89EF13F068
:1027C00043D8C90EE66E1D0EA4DFB00EE66E1D0ED8
:1027D000A0DF880EE66E1D0E9CDF0101B06BB16BB1
:1027E0001200670EE66E200E89EF13F092DF450EA1
:1027F000E66E210E89EF13F0BCDF860EE66E1E0E2C
:1028000088DFEBC0E6FF2DEF14F083DFE50EE66E08
:10281000200E7FDF01011200B7EC0BF0E552E5520C
:10282000E552E55212002DEF14F0106EAFDFE66EA8
:1028300084DF040EE66E010EE66E86DF1FD8C10E41
:10284000E66E200E89EF13F03B0EE66E220E89EF46
:1028500013F00101B52BD7EF13F08BEC14F0E55218
:1028600012000101B56BC36BD7EF13F098DFDAEFFD
:1028700013F0E8C0E6FF78DF89EF13F0270EE66E6D
:06288000220E89EF13F0A7
:0A288600B06A810EAF6EAC8AAC940C
:10289000B886AC98AB8EAB889E9A9D8A9F9A949C82
:1028A000948E120058D9040EE126DE6ADD6ADECF6E
:1028B00010F0DDCF11F086D911501318E8AE02D018
:1028C000133404D01250105C135011581DE2020E44
:1028D000DB6A030EDB6A020EDBCF10F0030EDBCFE8
:1028E00011F0D890115004E6EE0E105C000E115855
:1028F00006E2020EDB2A030EEEE3DB2AECD7DF2A28
:10290000010ED5E3DB2AD3D7040EE15C02E2E16AD3
:10291000E552E16E25D11FD99EA8FED7FE0EDB50F1
:10292000AD6E9E981DD117D945D908E043D923D95A
:10293000FD0EDB2AFE0EF8E3DB2AF6D711D10BD908
:102940001ED90CE01CD917D9FD0EDBCFF6FFDB2A10
:10295000FE0EDBCFF7FFF4E3DB2AF2D701D126EF3F
:1029600011F0F9D8050EE126010EF36EDB6E020EB2
:10297000DB6A030EDB6A040EDB6ADF6ADFCF10F06E
:10298000116A10BE1168FB0EDBCF12F0FC0EDBCF1C
:1029900013F011501318E8AE02D0133404D01250C3
:1029A000105C135011581FE2FD0EDBCF10F0FE0E2D
:1029B000DBCF11F0126A136A11AE02D012681368ED
:1029C000D950010FE96EDACFEAFF10C00BF011C049
:1029D0000CF012C00DF013C00EF0DAD8DBEC1BF0D7
:1029E000E0D8DF2ACBD7010EDBCF10F0020EDBCF11
:1029F00011F0030EDBCF12F0040EDBCF13F010C08A
:102A000006F011C007F012C008F013C009F0050E5F
:102A1000E15C02E2E16AE552E16EA2D09CD8020ECE
:102A2000E126DF6AFB0EDBCF10F0FC0EDBCF11F0EE
:102A3000C9D8105011101210131003E1300E9BD89A
:102A40006DD092D8D890030EEB50000A08E6000E25
:102A5000EE5C000EEE58000EEE58000EEE580EE240
:102A60002D0E89D881D8000EEE6CEF1EEE22EF1EDF
:102A7000EE22EF1EEF22ED52ED52ED52DE520A0E23
:102A8000DD6E010EDBCF10F0000EE76E1018E8AE21
:102A900002D0103403D0E750D88010543FE2010E2A
:102AA000DB04146E156A14BE15684ED83ED8065065
:102AB0000710081009101EE0010EDF6EDB04186E0F
:102AC000196A18BE196818C0E6FF19C0E6FF81D858
:102AD00006C014F007C015F008C016F009C017F0C2
:102AE00024D880D8300E1026000E11221222132274
:102AF000105003D0DF5002E0300E3DD8010EDB0451
:102B0000146E156A14BE15681FD82ED874D840D814
:102B100013EC1CF046D8010EDB06B3D7020EE15CC5
:102B200002E2E16AE552E16E1BD065D8FB0EDBCF15
:102B300006F0FC0EDBCF07F0FD0EDBCF08F0FE0E3B
:102B4000DBCF09F013EF1CF014C0E6FF15C0E6FF61
:102B500040D8F2EF15F0D9CFE6FFE1CFD9FF120050
:102B6000E552E7CFD9FF1200D950FB0FE96EFF0EF7
:102B7000DA20EA6E1200E66ECEDEE5521200FD0E9D
:102B8000DBCFF6FFFE0EDBCFF7FF0800F55012009B
:102B9000EECF06F0EECF07F0EECF08F0EFCF09F062
:102BA000120005C0EDFF04C0EDFF03C0EDFF02C041
:102BB000EFFF1200FD0EDBCFE9FFFE0EDBCFEAFFD9
:102BC000EF501200FD0EDBCF12F0FE0EDBCF13F044
:102BD00012000A0EE66EE66AC4DEE552E552E552E0
:102BE000E552120006C010F007C011F008C012F044
:102BF00009C013F0120006C00BF007C00CF008C0AB
:082C00000DF009C00EF01200F6
:082C08000F0E946E82681200A9
:102C1000070E9410946EDF0E9414946E8268120066
:102C20003ED968D901E661D915E24BD9826E58D9EF
:102C30003FD901E65AD909E225D902E16CD901D080
:102C400083D965D9F5E3DB2AF3D7DF2A010EE9E35F
:102C5000DB2AE7D7040EE15C02E2E16AE5523BD1F0
:102C60001ED948D904E6020E105C000E115813E27A
:102C70006FD91ED901E639D909E204D902E14BD94D
:102C800001D062D944D9F5E3DB2AF3D7DF2A010E5C
:102C9000E8E3DB2AE6D7040EE15C02E2E16AE552F2
:102CA0001AD1FDD81DD901016A1D8214826E18D96E
:102CB000FFD801E61AD909E2E5D802E12CD901D002
:102CC00043D925D9F5E3DB2AF3D7040EE15C02E210
:102CD000E16AE55200D1E3D803D9010EDE6EDD6A68
:102CE00037D9E6D804E6030E105C000E115809E24D
:102CF000C9D802E110D901D027D909D9F2E3DB2ADA
:102D0000F0D7040EE15C02E2E16AE552E4D0C7D8F4
:102D100024D9FD0EDBCF12F0FE0EDBCF13F01150E5
:102D20001318E8AE02D0133404D01250105C1350C4
:102D3000115811E2D5D8BCD804E6EE0E105C000E96
:102D4000115804E2E4D8F7E3DB2AF5D7DF2A010EB5
:102D5000DFE3DB2ADDD7040EE15C02E2E16AE55243
:102D6000BAD09DD8C7D801E6C0D820E2AAD8826ED2
:102D7000B7D89ED801E6B9D80BE2E6D883D804E1EB
:102D800071D8010EEE6EED6AC2D8F3E3DB2AF1D7FB
:102D90008250816EE80EE66E030EE66EB8DFE552F5
:102DA000E552DF2A010EDEE3DB2ADCD7040EE15C0C
:102DB00002E2E16AE5528FD0D9CFE6FF040EE126A8
:102DC00084B005D001014A2B000E4B2303D0010132
:102DD0004A6B4B6B84B204D04C2B000E4D2302D0B7
:102DE0004C6B4D6B84B404D04E2B000E4F2302D09D
:102DF0004E6B4F6B82B004D0502B000E512302D08B
:102E0000506B516B82B204D0522B000E532302D070
:102E1000526B536B82B404D0542B000E552302D056
:102E2000546B556B82BA04D0562B000E572302D038
:102E3000566B576B81B004D0582B000E592302D02B
:102E4000586B596B040EE15C02E2E16AE55243D033
:102E5000070E9610966E270E9410946E010E931026
:102E6000936E12007AD8D89010361136D89010365A
:102E70001136020EDB501024E96E030EDB501120D8
:102E8000B2EF17F0020EDBCFE9FF030EDBCFEAFF54
:102E90006E0EE926010EEA22EF5082141200D9CFFD
:102EA000E6FFE1CFD9FF040EE126DE6ADD6A1200FB
:102EB000020EDBCF10F0030EDBCF11F0D8901150D3
:102EC0001200DECFE9FFDDCFEAFF6A0EE926010E30
:102ED000EA22EF1C1200E16EE552E7CFD9FF1200A3
:102EE000020EDB6A030EDB6A1200040E105C000E99
:102EF0001158120032D8D89011501200D8901436C0
:102F00001536120012C0EEFF13C0EDFF1200020EC4
:102F1000DB2A030E1200DECF14F0DDCF15F0EEDF5A
:102F2000EDDF020EDB501424E96E030EDB5015209A
:102F300019D8EECF12F0EFCF13F0010E1226000ECB
:102F4000132290DF82EF17F08DDFEE6AED6A120038
:102F5000B8DF8214826E70EF17F0DECF10F0DDCF95
:102F600011F01200EA6ED890E936EA364A0EE926E8
:062F7000010EEA2212002E
:0A2F76000AD9020EE126FE0EDB5020
:102F80000F0BDF6EFE0EDB380F0B0A0D14D902E2B9
:102F9000E16AE552E16E1050FED0F8D8020EE1264B
:102FA00013D90550DF6E10D90950100D04D902E273
:102FB000E16AE552E16E1050EED094869488C79E87
:102FC000C79CC690C692C694C686310EC86EC68A85
:102FD00012000ED9D00FC96E9EA6FED7DCD008D93C
:102FE000A00FC96E9EA6FED7D6D09E96C5809EA67F
:102FF000FED712009E96C5849EA6FED71200F8D872
:10300000C96E9EA6FED7C7D09E96C5869EA6FED741
:10301000C95012009E96C59AC5889EA6FED712007A
:103020009E96C58AC5889EA6FED71200AFD8D4D872
:10303000010EFF6FE85004E0C550400BFAE0F8D7EE
:10304000FE0EA0D8010EFF6FE85004E0C550400B03
:10305000FAE0F8D7FD0EDBCFE6FF9FDFE552E66E24
:10306000CCD8010EFF6FE85004E0C550400BFAE0E9
:10307000F8D7C0DF90D08AD8B5D8010EFF6FE850DE
:1030800004E0C550400BFAE0F8D7FE0E7BD8010EE5
:10309000FF6FE85004E0C550400BFAE0F8D77FD846
:1030A000010EFF6FE85004E0C550400BFAE0F8D77E
:1030B000FC0E68D8010EFF6FE85004E0C550400BCD
:1030C000FAE0F8D797DF67D061D8E65285D8010ECD
:1030D000FF6FE85004E0C550400BFAE0F8D7FE0E51
:1030E00051D8010EFF6FE85004E0C550400BFAE0E4
:1030F000F8D77BDF010EE66E6CDFE5520001010EB2
:10310000FF6FE85004E0C550400BFAE0F8D77CDFD1
:10311000DF6EDFCFE6FF2FDFE552DF6EDF50E552D7
:103120003AD034D8E6525ED8010EFF6FE85004E082
:10313000C550400BFAE0F8D7FE0E24D8010EFF6F01
:10314000E85004E0C550400BFAE0F8D728D8010E4B
:10315000FF6FE85004E0C550400BFAE0F8D745DFB8
:10316000010EE66E3CDFE5520001010EFF6FE850F4
:1031700004E0C550400BFAE0F8D746DFDF6EDF50C1
:10318000E55209D0DBCFE6FFFDEF18F0D9CFE6FF1F
:10319000E1CFD9FF1200E552E7CFD9FF1200FD0EB3
:1031A000DBCF10F0FE0EDBCF11F00001116A1050E2
:1031B000E66EFDEF18F0010EF3CFDBFFDB50DF24EE
:1031C000106E020EE15C12000A0E106E0E6EFE0E04
:1031D000DBCF09F0A4EF1CF008DFE66AFADEE55267
:1031E0000001120002DFE66AFADEE5520001120079
:1031F000CDDF9E96FE0EDB50120001DFE55200018E
:023200001200BA
:0E320200F1D8D59EFD0EDBCF72F1FE0EDBCFB4
:1032100073F1D59C05D9D59AD586F28AF294F184BA
:10322000D58EE6D0D59E1200FBD8D58E1200DBD805
:10323000CD90FD0EDBCF74F1FE0EDBCF75F1F7D82C
:103240009D809E909F90CD8ECD8CCD98CD9ACD9621
:10325000CD92CD80CDD0EBD8CD801200CD90120094
:10326000C2D8CA94CC6AFE0EDB500101766F776B30
:10327000CB6E9D829E929F92CA90CA92CA84B8D009
:1032800076C1CBFFCA841200CA941200ACD8B190A8
:10329000FD0EDBCF78F1FE0EDBCF79F1CFD80750F2
:1032A000B36ECCD8B5D8B26EA082A192A292B18EE4
:1032B000B198B19AB192B1809BD0C0D80350B26E90
:1032C000BDD89ED8B36EB1801200B190120001013A
:1032D000822B000E83238A51825D8B51835904E334
:1032E000826B836B010E7A6F12000101842B000E3A
:1032F00085238C51845D8D51855904E3846B856BE6
:10330000010E7B6F12000101862B000E87238E5168
:10331000865D8F51875904E3866B876B010E7C6F46
:1033200012000101882B000E89239051885D915174
:10333000895904E3886B896B010E7D6F120053D8A5
:10334000FD0EDBCF8AF1FE0EDBCF8BF10101826B2C
:10335000836B7A6B4DD047D8FD0EDBCF8CF1FE0E20
:10336000DBCF8DF1050E0D6E0E6A8CC108F08DC19C
:1033700009F0F1EC1AF008C08CF109C08DF10101DF
:10338000846B856B7B6B34D02ED8FD0EDBCF90F138
:10339000FE0EDBCF91F10A0E0D6E0E6A90C108F0A1
:1033A00091C109F0F1EC1AF008C090F109C091F157
:1033B0000101886B896B7D6B1BD0186A1650135CFA
:1033C000106E17501458116E18501558126E0C6A62
:1033D000010E0D6E0E6A10C007F011C008F012C089
:1033E00009F017EF1BF0D9CFE6FFE1CFD9FF1200AC
:1033F000E552E7CFD9FF120013681468156A12006E
:1034000007C010F008C011F009C012F007501200F8
:1034100003C010F004C011F005C012F003501200F8
:1034200014D80350D66E11D8EBDFD76E120014D823
:103430000750CF6E11D8ECDFCE6E1200DDDF78C101
:1034400016F079C117F0DDEF19F0D6DF72C116F072
:1034500073C117F0DDEF19F0CFDF74C116F075C13D
:0634600017F0DDEF19F08A
:0A346600F28ED08EF28C1200F19C61
:10347000F292F2881200D8CFE4FFE0CFE4FFE46ECE
:103480006CD800EE00F0100EE80403E3EECFE4FF8A
:10349000FBD700EE10F00A0EE80403E3EECFE4FFE2
:1034A000FBD7E652F2B481D89EB086D89EB28BD8B4
:1034B000A1B290D8F2B2F2929EAA03D09E9AAFEC3B
:1034C00014F0E55200EE19F00A0EE80403E3E5CF2C
:1034D000EDFFFBD700EE0FF0100EE80403E3E5CF9D
:1034E000EDFFFBD74FD8E550E5CFE0FFE5CFD8FFA4
:1034F000100033D800EE00F0100EE80403E3EECF26
:10350000E4FFFBD700EE10F00A0EE80403E3EECF71
:10351000E4FFFBD7E652F2B448D89EB04DD89EB235
:1035200052D8A1B257D8F2B2F2929EAA03D09E9A74
:10353000AFEC14F0E55200EE19F00A0EE80403E3D4
:10354000E5CFEDFFFBD700EE0FF0100EE80403E32C
:10355000E5CFEDFFFBD716D81100DACFE4FFE2CFBD
:10356000DAFFE9CFE4FFEACFE4FFF6CFE4FFF7CFDD
:10357000E4FFF5CFE4FFF3CFE4FFF4CFE4FFFACFAD
:10358000E4FF1200E5CFFAFFE5CFF4FFE5CFF3FF4C
:10359000E5CFF5FFE5CFF7FFE5CFF6FFE5CFEAFF93
:1035A000E5CFE9FFE5CFDAFF120012EC19F0F29453
:1035B00014EC19F067EF19F02EEC19F09E902BEC3B
:1035C00019F075EF19F044EC19F09E9240EC19F0E7
:1035D00083EF19F065EC19F0A1925DEC19F091EF11
:0235E00019F0E0
:0E35E200006A0EAEFAEF1AF00D6C0E1EE86ACB
:1035F0000E22001E09AE02EF1BF0086C091EE86ADD
:103600000922001E70EC1CF009BE12EF1BF000AE88
:10361000000C086C091EE86A0922046C051EE86AA1
:103620000522000C00BE09EF1BF00188FF0C006AA8
:103630000EAE22EF1BF00C6C0D1E0E1EE86A0D2262
:103640000E22001E09AE2CEF1BF0076C081E091E8F
:10365000E86A08220922001E37EC1CF009BE3FEF81
:103660001BF000AE000C076C081E091EE86A082259
:103670000922036C041E051E04220522000C00BE54
:0836800033EF1BF00188FF0C81
:083688001E0EF66E000EF76E37
:10369000000EF86E00010900F550F46F0900F550B6
:1036A000F56F03E1F46701D03DD00900F550EF6FED
:1036B0000900F550F06F0900F550F16F090009009D
:1036C000F550E96E0900F550EA6E0900090009009D
:1036D000F550F26F0900F550F36F09000900F6CFBD
:1036E000F6F0F7CFF7F0F8CFF8F0EFC0F6FFF0C044
:1036F000F7FFF1C0F8FF0001F25302E1F35307E0D6
:103700000900F550EE6EF207F8E2F307F9D7F6C0BC
:10371000F6FFF7C0F7FFF8C0F8FF0001F407000E4E
:06372000F55BBFD71200AB
:0A372600010E926E0E0EC16EC26A13
:10373000040EC06EC2801200D9CFE6FFE1CFD9FFE0
:10374000020EE126DE6ADD6AC282C2B2FED7C45032
:10375000DE6EDD6ADECF12F0DDCF13F0D8901236C8
:103760001336D89012361336060EC3CFE7FF070B79
:1037700004E0E742E79EE806FCE1E7501224106E01
:10378000000E132010C0DEFFDD6EDECF92F1DDCF24
:1037900093F1DECF10F0DDCF11F010C0F3FF11C0B8
:1037A000F4FF020EE15C02E2E16AE552E16EE552ED
:0637B000E7CFD9FF120073
:0A37B60006500B02F3CF02F0F4CF2F
:1037C00003F00C02F3500326000EF420046E0650A2
:1037D0000D02F3500426000EF420056E06500E0272
:1037E000F350052607500B02F3500326F450042231
:1037F000000E052207500C02F3500426F450052257
:1038000007500D02F350052608500B02F350042612
:10381000F450052208500C02F350052609500B0203
:06382000F3500526120022
:0A382600056A046A036A026A200EB4
:10383000E76ED89006360736083609360236033664
:10384000043605360B50025C0C5003580D500458DA
:103850000E50055809E30B50025E0C50035A0D50F0
:0E386000045A0E50055A062AE72EE4D712002D
:02386E00056AE9
:10387000046A036A180EE76ED890073608360936D0
:103880000336043605360C50035C0D5004580E50B8
:10389000055807E30C50035E0D50045A0E50055AAC
:0838A000072AE72EEAD7120007
:0838A800CA94CA90CA829B0E6B
:1038B000CB6EBD98BD9ABE6ABD9CBD9EBD90BD92AB
:1038C000BD84BD869494CA841200D9CFE6FFE1CFAF
:1038D000D9FFFE0EDB50BE6EE552E7CFD9FF1200D6
:1038E000056A046A100EE76ED89008360936043669
:1038F00005360D50045C0E50055805E30D50045E6E
:0C3900000E50055A082AE72EF0D71200DE
:04390C00800EF36EC8
:1039100000EE00F00F0E01D81200EA6002D0EE6A4D
:0C392000FCD7F350E9601200EE6AFCD7FF
:04392C001EEE00F09B
:103930002EEE00F0F86A019C44EC1BF003EC00F062
:0839400040EC00F0FBD712007F
:08394800056A080EE76ED89035
:10395000093605360E50055C02E3056E092AE72E8E
:04396000F7D7120083
:0C39640000000000000000000000000057
:103970000000000000000000000000000100010045
:043980000100010041
:0C3984000000000000000100000000082E
:0D3990000500000000000000000000000025
:03399D0001020420
:1039A0000810204080000000000000000001020319
:1039B0004104050642070809432A00454401020361
:1039C000040207080903030303040806080541422B
:1039D00043FF00FFFFFFFF0A040A040A040A040071
:0739E00000000400000000DC
:0939E700000000000000000010C7
:1039F0001010101010101018181818181818181C7B
:103A00001C1C1C1C1C1C1C1E1E1E1E1E1E1E1E1FE3
:103A10001F1F1F1F1F1F1F000000000000000000CD
:103A20000000000000000000000000000000000096
:103A30000000000000000000000000000000000086
:083A400000000000000000007E
:083A4800000000D00022222240
:103A50000725091000010000000000000000000020
:033A600000000063
:0D3A63000000000000000000000000000056
:103A70000000000000000000000000000000000046
:0B3A800000000010204080010204083C
:020000040030CA
:0100010002FC
:0100020003FA
:010003001EDE
:010005008179
:010006008178
:010008000FE8
:01000900C036
:01000A000FE6
:01000B00E014
:01000C000FE4
:01000D0040B2
:00000001FF
